{
  "_format": "hh-sol-artifact-1",
  "contractName": "Eunomia",
  "sourceName": "contracts/Eunomia.sol",
  "abi": [
    {
      "inputs": [],
      "stateMutability": "payable",
      "type": "constructor"
    },
    {
      "inputs": [],
      "name": "get_dump",
      "outputs": [
        {
          "internalType": "uint256",
          "name": "",
          "type": "uint256"
        }
      ],
      "stateMutability": "view",
      "type": "function"
    },
    {
      "inputs": [],
      "name": "get_paid",
      "outputs": [
        {
          "internalType": "uint256",
          "name": "",
          "type": "uint256"
        }
      ],
      "stateMutability": "view",
      "type": "function"
    },
    {
      "inputs": [],
      "name": "get_weight",
      "outputs": [
        {
          "internalType": "uint256",
          "name": "",
          "type": "uint256"
        }
      ],
      "stateMutability": "view",
      "type": "function"
    },
    {
      "inputs": [
        {
          "internalType": "uint256",
          "name": "trash_type",
          "type": "uint256"
        },
        {
          "internalType": "uint256",
          "name": "weight",
          "type": "uint256"
        }
      ],
      "name": "send_eth",
      "outputs": [],
      "stateMutability": "nonpayable",
      "type": "function"
    }
  ],
  "bytecode": "0x608060405260006001819055506000808190555060006002819055506100636040518060400160405280601981526020017f57652068617665206265656e20636f6e7374727563746564210000000000000081525061006860201b61025c1760201c565b6101eb565b6101048160405160240161007c9190610169565b6040516020818303038152906040527f41304fac000000000000000000000000000000000000000000000000000000007bffffffffffffffffffffffffffffffffffffffffffffffffffffffff19166020820180517bffffffffffffffffffffffffffffffffffffffffffffffffffffffff838183161783525050505061010760201b60201c565b50565b60008151905060006a636f6e736f6c652e6c6f679050602083016000808483855afa5050505050565b600061013b8261018b565b6101458185610196565b93506101558185602086016101a7565b61015e816101da565b840191505092915050565b600060208201905081810360008301526101838184610130565b905092915050565b600081519050919050565b600082825260208201905092915050565b60005b838110156101c55780820151818401526020810190506101aa565b838111156101d4576000848401525b50505050565b6000601f19601f8301169050919050565b6106f4806101fa6000396000f3fe608060405234801561001057600080fd5b506004361061004c5760003560e01c8063022fb48e146100515780632dbb789f1461006f578063b36fc4061461008b578063f07b11ab146100a9575b600080fd5b6100596100c7565b6040516100669190610497565b60405180910390f35b61008960048036038101906100849190610333565b6100d1565b005b610093610249565b6040516100a09190610497565b60405180910390f35b6100b1610252565b6040516100be9190610497565b60405180910390f35b6000600154905090565b600064e8d4a510006019836100e6919061052f565b604b856100f3919061052f565b6100fd91906104d9565b610107919061052f565b9050816001600082825461011b91906104d9565b925050819055508060008082825461013391906104d9565b9250508190555060016002600082825461014d91906104d9565b9250508190555047811115610197576040517f08c379a000000000000000000000000000000000000000000000000000000000815260040161018e90610477565b60405180910390fd5b60003373ffffffffffffffffffffffffffffffffffffffff16826040516101bd90610420565b60006040518083038185875af1925050503d80600081146101fa576040519150601f19603f3d011682016040523d82523d6000602084013e6101ff565b606091505b5050905080610243576040517f08c379a000000000000000000000000000000000000000000000000000000000815260040161023a90610457565b60405180910390fd5b50505050565b60008054905090565b6000600254905090565b6102f2816040516024016102709190610435565b6040516020818303038152906040527f41304fac000000000000000000000000000000000000000000000000000000007bffffffffffffffffffffffffffffffffffffffffffffffffffffffff19166020820180517bffffffffffffffffffffffffffffffffffffffffffffffffffffffff83818316178352505050506102f5565b50565b60008151905060006a636f6e736f6c652e6c6f679050602083016000808483855afa5050505050565b60008135905061032d816106a7565b92915050565b6000806040838503121561034657600080fd5b60006103548582860161031e565b92505060206103658582860161031e565b9150509250929050565b600061037a826104b2565b61038481856104c8565b9350610394818560208601610593565b61039d816105f5565b840191505092915050565b60006103b56027836104c8565b91506103c082610606565b604082019050919050565b60006103d86035836104c8565b91506103e382610655565b604082019050919050565b60006103fb6000836104bd565b9150610406826106a4565b600082019050919050565b61041a81610589565b82525050565b600061042b826103ee565b9150819050919050565b6000602082019050818103600083015261044f818461036f565b905092915050565b60006020820190508181036000830152610470816103a8565b9050919050565b60006020820190508181036000830152610490816103cb565b9050919050565b60006020820190506104ac6000830184610411565b92915050565b600081519050919050565b600081905092915050565b600082825260208201905092915050565b60006104e482610589565b91506104ef83610589565b9250827fffffffffffffffffffffffffffffffffffffffffffffffffffffffffffffffff03821115610524576105236105c6565b5b828201905092915050565b600061053a82610589565b915061054583610589565b9250817fffffffffffffffffffffffffffffffffffffffffffffffffffffffffffffffff048311821515161561057e5761057d6105c6565b5b828202905092915050565b6000819050919050565b60005b838110156105b1578082015181840152602081019050610596565b838111156105c0576000848401525b50505050565b7f4e487b7100000000000000000000000000000000000000000000000000000000600052601160045260246000fd5b6000601f19601f8301169050919050565b7f4661696c656420746f207769746864726177206d6f6e65792066726f6d20636f60008201527f6e74726163742e00000000000000000000000000000000000000000000000000602082015250565b7f547279696e6720746f207769746864726177206d6f7265206d6f6e657920746860008201527f616e207468657920636f6e7472616374206861732e0000000000000000000000602082015250565b50565b6106b081610589565b81146106bb57600080fd5b5056fea26469706673582212204e2c5d14947449fa0fa1bcda95707419f6e474c4b837aaab61ca4857cb223cc864736f6c63430008040033",
  "linkReferences": {},
  "deployedLinkReferences": {}
}