{
    "_format": "hh-sol-artifact-1",
    "contractName": "Eunomia",
    "sourceName": "contracts/Eunomia.sol",
    "abi": [
        {
            "inputs": [],
            "stateMutability": "payable",
            "type": "constructor"
        },
        {
            "inputs": [],
            "name": "get_paid",
            "outputs": [
                {
                    "internalType": "uint256",
                    "name": "",
                    "type": "uint256"
                }
            ],
            "stateMutability": "view",
            "type": "function"
        },
        {
            "inputs": [],
            "name": "get_weight",
            "outputs": [
                {
                    "internalType": "uint256",
                    "name": "",
                    "type": "uint256"
                }
            ],
            "stateMutability": "view",
            "type": "function"
        },
        {
            "inputs": [
                {
                    "internalType": "uint256",
                    "name": "trash_type",
                    "type": "uint256"
                },
                {
                    "internalType": "uint256",
                    "name": "weight",
                    "type": "uint256"
                }
            ],
            "name": "send_eth",
            "outputs": [],
            "stateMutability": "nonpayable",
            "type": "function"
        }
    ],
    "bytecode": "0x608060405260006001819055506000808190555061005b6040518060400160405280601981526020017f57652068617665206265656e20636f6e7374727563746564210000000000000081525061006060201b61020f1760201c565b6101e3565b6100fc816040516024016100749190610161565b6040516020818303038152906040527f41304fac000000000000000000000000000000000000000000000000000000007bffffffffffffffffffffffffffffffffffffffffffffffffffffffff19166020820180517bffffffffffffffffffffffffffffffffffffffffffffffffffffffff83818316178352505050506100ff60201b60201c565b50565b60008151905060006a636f6e736f6c652e6c6f679050602083016000808483855afa5050505050565b600061013382610183565b61013d818561018e565b935061014d81856020860161019f565b610156816101d2565b840191505092915050565b6000602082019050818103600083015261017b8184610128565b905092915050565b600081519050919050565b600082825260208201905092915050565b60005b838110156101bd5780820151818401526020810190506101a2565b838111156101cc576000848401525b50505050565b6000601f19601f8301169050919050565b6106a7806101f26000396000f3fe608060405234801561001057600080fd5b50600436106100415760003560e01c8063022fb48e146100465780632dbb789f14610064578063b36fc40614610080575b600080fd5b61004e61009e565b60405161005b919061044a565b60405180910390f35b61007e600480360381019061007991906102e6565b6100a8565b005b610088610206565b604051610095919061044a565b60405180910390f35b6000600154905090565b600064e8d4a510006019836100bd91906104e2565b604b856100ca91906104e2565b6100d4919061048c565b6100de91906104e2565b905081600160008282546100f2919061048c565b925050819055508060008082825461010a919061048c565b9250508190555047811115610154576040517f08c379a000000000000000000000000000000000000000000000000000000000815260040161014b9061042a565b60405180910390fd5b60003373ffffffffffffffffffffffffffffffffffffffff168260405161017a906103d3565b60006040518083038185875af1925050503d80600081146101b7576040519150601f19603f3d011682016040523d82523d6000602084013e6101bc565b606091505b5050905080610200576040517f08c379a00000000000000000000000000000000000000000000000000000000081526004016101f79061040a565b60405180910390fd5b50505050565b60008054905090565b6102a58160405160240161022391906103e8565b6040516020818303038152906040527f41304fac000000000000000000000000000000000000000000000000000000007bffffffffffffffffffffffffffffffffffffffffffffffffffffffff19166020820180517bffffffffffffffffffffffffffffffffffffffffffffffffffffffff83818316178352505050506102a8565b50565b60008151905060006a636f6e736f6c652e6c6f679050602083016000808483855afa5050505050565b6000813590506102e08161065a565b92915050565b600080604083850312156102f957600080fd5b6000610307858286016102d1565b9250506020610318858286016102d1565b9150509250929050565b600061032d82610465565b610337818561047b565b9350610347818560208601610546565b610350816105a8565b840191505092915050565b600061036860278361047b565b9150610373826105b9565b604082019050919050565b600061038b60358361047b565b915061039682610608565b604082019050919050565b60006103ae600083610470565b91506103b982610657565b600082019050919050565b6103cd8161053c565b82525050565b60006103de826103a1565b9150819050919050565b600060208201905081810360008301526104028184610322565b905092915050565b600060208201905081810360008301526104238161035b565b9050919050565b600060208201905081810360008301526104438161037e565b9050919050565b600060208201905061045f60008301846103c4565b92915050565b600081519050919050565b600081905092915050565b600082825260208201905092915050565b60006104978261053c565b91506104a28361053c565b9250827fffffffffffffffffffffffffffffffffffffffffffffffffffffffffffffffff038211156104d7576104d6610579565b5b828201905092915050565b60006104ed8261053c565b91506104f88361053c565b9250817fffffffffffffffffffffffffffffffffffffffffffffffffffffffffffffffff048311821515161561053157610530610579565b5b828202905092915050565b6000819050919050565b60005b83811015610564578082015181840152602081019050610549565b83811115610573576000848401525b50505050565b7f4e487b7100000000000000000000000000000000000000000000000000000000600052601160045260246000fd5b6000601f19601f8301169050919050565b7f4661696c656420746f207769746864726177206d6f6e65792066726f6d20636f60008201527f6e74726163742e00000000000000000000000000000000000000000000000000602082015250565b7f547279696e6720746f207769746864726177206d6f7265206d6f6e657920746860008201527f616e207468657920636f6e7472616374206861732e0000000000000000000000602082015250565b50565b6106638161053c565b811461066e57600080fd5b5056fea26469706673582212205ee7b9f083f0c6be1cb125277b1193c7001a5243fea3208329b15b0d4a91af9c64736f6c63430008040033",
    "linkReferences": {},
    "deployedLinkReferences": {}
}